:020000041000EA
:1000000000B5324B212058609868022188439860DF
:10001000D860186158612E4B002199600221596106
:100020000121F02299502B49196001219960352056
:1000300000F044F80222904214D00621196600F024
:1000400034F8196E01211966002018661A6600F04E
:100050002CF8196E196E196E052000F02FF8012189
:100060000842F9D1002199601B49196000215960AB
:100070001A491B48016001219960EB211966A021F2
:10008000196600F012F800219960164914480160C1
:100090000121996001BC002800D000471248134993
:1000A000086003C880F30888084703B5996A0420EC
:1000B0000142FBD001200142F8D103BD02B5186610
:1000C0001866FFF7F2FF186E186E02BD00000240BE
:1000D000000000180000070000035F00212200005C
:1000E000F4000018222000A00001001008ED00E03C
:1000F00000000000000000000000000074B24E7A12
:1001000000200420F7010010C3010010C5010010F9
:10011000C1010010C1010010C1010010C101001097
:10012000C1010010C1010010C1010010C701001081
:10013000C1010010C1010010C9010010CB01001065
:10014000CD010010CD010010CD010010CD01001037
:10015000CD010010CD010010CD010010CD01001027
:10016000CD010010CD010010CD010010CD01001017
:10017000CD010010CD010010CD010010CD01001007
:10018000CD010010CD010010CD010010CD010010F7
:10019000CD010010CD010010CD010010CD010010E7
:1001A000CD010010CD010010CD010010CD010010D7
:1001B000CD010010CD010010CD010010CD010010C7
:1001C00000BE00BE00BE00BE00BE00BE00F04BF888
:1001D000103800BEF2EB887120FC0C1084FC0C106F
:1001E0003402001090A31AE700202149086006C8D5
:1001F00081F3088810471F48006800282FD10DA4FC
:100200000ECC002902D000F012F8F9E71A491B4A77
:10021000002000E001C19142FCD1194988471949E9
:1002200088471949884700BEFDE701C901C29A42C3
:10023000FBD3704784FC0C10C00000200873002022
:10024000CC6E0D100000042000000420CC6E0D10B8
:1002500000100420001004200000000070470B482C
:1002600079F05BF80047EFF30580C0B270470000FB
:1002700008ED00E0000000D0087300204493032044
:100280006DB007106986021039B10710575600008B
:1002900006005250ABB360534DFB0C100600525099
:1002A000861C0302955C0910060052505422A29D40
:1002B00058FB0C1005005250DE65F468CC6E0D1032
:1002C000F8B5C0460448054B10B5834203D0044B33
:1002D000002B00D0984710BD087300200873002041
:1002E0000000000006480749091A8B10C90FC918F9
:1002F00010B5491003D0044B002B00D0984710BD17
:1003000008730020087300200000000010B5074C9F
:100310002378002B09D1FFF7D5FF054B002B02D026
:10032000044800E000BF0123237010BD08740020C2
:1003300000000000A0F40710054B10B5002B03D0FF
:100340000449054800E000BFFFF7CCFF10BDC046E0
:10035000000000000C740020A0F40710030020B57A
:10036000500C1500520892B2002904D0E90702D4BB
:100370000B4817F003FD904206D198420FD00200BF
:100380000849094816F05CFD984204D9C21A074989
:10039000054816F055FD9A4201D20549F1E720BD06
:1003A000A0F40710C8F407108C26081001F50710F8
:1003B00033F50710F0B50025170087B00C9C0D9E93
:1003C00003900491059302950195059B9D4206D1EA
:1003D000019B039A93423AD2214817F0CFFC039B2A
:1003E0009D4211D263889B05F6D4019B049A013388
:1003F0000193AB00D058FF2263881340012B20D11A
:100400000DF0B8F8307013E0022321880022C900F3
:100410003800194309F066FA00280DD16388DB051E
:1004200004D522880F49104816F00AFD636833602E
:10043000013508340436C8E7029B40680133029353
:10044000D9E7022B01D10CF015FF3060F0E73B68D3
:10045000029ADB08934201D90448BEE707B0F0BD19
:1004600079F5071062F507108C2608109AF5071029
:1004700070B515001E00040086B08200AA1803A8FB
:1004800009F008FA0B9B290001930A9B20000093B6
:1004900003AA3300FFF78EFF06B070BD10B5014808
:1004A00017F08EFCB8F5071010B504000161880044
:1004B00009F098F9606110BD10B50400002902D060
:1004C000C06809F0C3F9606909F0C0F910BD70B5E2
:1004D00004000D0001290ADC012103694942406939
:1004E0009A007CF01FFF00232560636070BD4068A8
:1004F00009F078F96368E060A360F4E7030010B5E1
:100500001C6842680020022C01D1D8688018891824
:10051000596010BD0368012B03DC42684369890000
:10052000CA50704742684B1E9B18494219404160AF
:10053000704770B50C001500FFF7E0FF04190028A4
:1005400003D170BD05702D0A0130A042FAD1F8E741
:1005500010B50C000221FFF7D1FF002802D0047073
:10056000240A447010BD0000F8B5050003290DD819
:100570000024104B5F5CB521090228003943FFF7C6
:10058000E7FF261E0DD1AF61EC61F8BD01230239F2
:1005900099430C00FE27EEE728000749FFF7D8FF34
:1005A0007F3E7F2EF8D8054928003143FFF7D0FF62
:1005B000E9E7C04632F60710FFB0000080B0000047
:1005C00070B5C5690400002D07D07F2D0DD8B0216E
:1005D000090220002943FFF7BBFFBD21A3690902DF
:1005E00020001943FFF7B4FF70BD20000249FFF758
:1005F000AFFF7F3DE9E7C0467FB00000F7B5FF27BA
:100600000B020E00111239400193194380239B0104
:10061000194305001400FFF79BFFF1000E438021F2
:10062000890028003143FFF793FFC021019B3C4024
:100630001C43890128002143FFF78AFFF7BD70B5ED
:100640000D0004211400FFF759FF002805D00570A4
:1006500084702D0A240A4570C47070BD10B5DB008B
:1006600011431943FFF774FF10BD10B5072A09D8CD
:10067000D20007290BD80A438C21C9011143FFF787
:1006800067FF10BD083AD30040221A43F1E708394A
:1006900011438022EFE7F7B505000C00160007298B
:1006A00013D8072A11D81F00089A9740FF2F0DD89A
:1006B000B14202D03200FFF7D8FFC0212402274305
:1006C000890139432800FFF743FFF7BDCA000192B3
:1006D0001900FF22914318D1B44223D021020B43C9
:1006E000802189011943FFF733FF089B28009901F6
:1006F0002143E3001943FFF72BFFE300B101194346
:100700000C43C02149012143DCE7B4420AD0210057
:100710003A00FFF773FFA1012143C024019B64014C
:100720001943F0E7072601216640B1400091B4214A
:10073000009B090219432800FFF70AFF3A00310025
:100740002800FFF75BFFB1012143C024019B640136
:10075000194321432800FFF7FBFEBC21009B09023F
:100760001943AFE74369890070B5CC58E021050013
:1007700043680902E41A043C23055B0D1943FFF7A3
:10078000E7FE2B680120022B08D1E40AE302002CCB
:1007900004D08022120198184342584170BDF8B528
:1007A000050000200F0083421AD16B699200D458D3
:1007B0006B68FF26E41AD023043C611031403F02ED
:1007C0001B02394328001943FFF7C2FE2B680120A2
:1007D000022B05D1B44303D0601CFF304342584183
:1007E000F8BD4369F822890070B5CC58F0210500A6
:1007F00043681202E41A043C63109BB21A4363027A
:100800005B0D09021943FFF71AFF2B680120022B29
:1008100008D1A40DA305002C04D08022D20398187F
:100820004342584170BD0000F8B5476804000E000F
:100830001500BB0703D5BF210902FFF789FE9021F0
:100840003602C90131432000FFF782FE200006492D
:10085000FFF77EFEA9B22000FFF77AFE2000290CE8
:10086000FFF776FE3800F8BD01E00000F7B506009E
:100870000C00170007290AD8FF239A4307D10C025E
:100880008021274389013943FFF762FEF7BDFB173B
:10089000FD185D4028007AF075FC0023019000935C
:1008A0009F4203D028007AF073FC0090009B0198CF
:1008B0009C46604417281AD91D41E9B225022943F4
:1008C0008025AD0130002943FFF742FE009BE00088
:1008D0002043990101433000FFF73AFE002FD5DA9B
:1008E0002300220030000A49FFF7B8FECEE72B0CA8
:1008F00005D12A0021003000FFF780FEEEE7002F2F
:1009000000DA6D422A0021003000FFF78DFFBDE7BD
:10091000404200000B00016810B5012906DDFF21EF
:100920001C008C4302D0064817F04AFA11029022AC
:10093000DBB2194312021143FFF70AFE10BDC04695
:10094000FAF50710036810B5012B06DDFF2314002C
:100950009C4302D0054817F033FAD2B20902114382
:10096000982212021143FFF7F3FD10BDFAF50710AC
:10097000D2B209021143A82210B512021143FFF7A7
:10098000E7FD10BD43699200D358426870B59B1AC9
:1009900001221A430C3A0C000500FFF72FFEB2218A
:1009A0002200280023000902FFF758FE80232101BE
:1009B0001940793B1C400C43024928002143FFF7B2
:1009C000C7FD70BD7844000037B504000D0007294D
:1009D0000ED8072A0CD81F2B0AD8D100D0222943C1
:1009E0009B011943D20111432000FFF7B1FD37BD30
:1009F0000221200000911F3B2900FFF74CFEE90077
:100A00000D4301492943EFE7C06F000043698900A6
:100A100010B5CC584368E11A0439CB0ADB02621CDA
:100A20000CD0CA1C0ADA0E4A934215D1E0230905FC
:100A3000490D1B021943FFF78BFD10BD002BF5D0AC
:100A4000074A9342F2D0BF210902FFF781FD631CE0
:100A5000F3D0044817F0B4F9002BF4D1E6E7C04610
:100A600000F8FFFF1CF6071070B504009300150096
:100A70004269985863680A02C31A043B411C11D0AA
:100A8000D91C0FDAFF201E000D4986438E4209D182
:100A90005910D023014011431B0220001943FFF7D6
:100AA00057FD70BD802149004A40D0210902200035
:100AB0001143FFF74DFD29002000FFF7A7FFF0E7E6
:100AC00000FFFFFF043A52100902D2B20A43D021BC
:100AD00010B509021143FFF73BFD10BDE02310B52F
:100AE000043909051B02490D1943FFF731FD10BDFB
:100AF00070B514000B00072221000500FFF764FF0A
:100B0000E1008F24E40128002143FFF721FD70BD9F
:100B100073B50B0069464C1D21007F261500013C72
:100B200035402570D209F9D1091B984700280AD011
:100B300080260200230001AD7642AB4204D16A4612
:100B400012791B1BC25473BD1978013331431170E4
:100B50000132F2E7030030B502687F2400201178EB
:100B6000C0010D0049B22540013228430029F6DBBF
:100B70001A6030BD07B5019001A8FFF7EBFF0EBD6D
:100B8000037801307F2BFBD870470000F0B595B09B
:100B90000C9303680B92069383890E000A934368B3
:100BA00007005A1C426003221B7801211A4001925F
:100BB0000022042504920392029278685BB2441CDE
:100BC000A446002B1EDB3F2200230120944606256D
:100BD00009930D937A68099C511C79601278110071
:100BE000014099400C4309946446511021402C0067
:100BF0005C43A1400D9C52B20C430D94002A1EDAB6
:100C00000133E7E763467B600378029C9811084054
:100C1000904004431800284090400294019C0443F3
:100C2000D810084090400194039C044318000840E9
:100C300090400394049C013204430494BDE70021D6
:100C4000BB68F9810793043305930A9B05989B00C1
:100C50001A0008937CF066FB019A0A9B9B1A039A80
:100C60000F939D1A013D059BAD005D190423029A67
:100C70001340019AB24200D373E0002B04D1330039
:100C80009849994816F0DCF82B1F1C00019B99002D
:100C90000C9B5918019BF01A13F006FD28602500E3
:100CA000019B0C9A079908989B0009189B1893427E
:100CB00000D07EE00823029A13400B9A10931A4347
:100CC0000223002A00D1F1E00022029C0E92029A37
:100CD0001C4011941A4204D00B980EF061F80E904B
:100CE00028600C9BB4001C1900230293029B0B9AF2
:100CF000934262D10F9B06999D00059B049C5A1953
:100D0000049B03339B00C8181100002C00D091E015
:100D100005990C3B8C46D318089A62449A4200D934
:100D200091E07868FFF72CFF00261390019BB342F7
:100D300000D092E0079B5D19039BA34200D092E094
:100D40007B680D9D9C4665442E00099B5B190193B1
:100D5000019BB34200D0B8E0099BED187D6015B04F
:100D6000F0BD002B02D0614B043D6B600823029A5A
:100D700013400B9A134314D1019B049A9A1AB2425E
:100D800000D97CE7049B019A9B199B1A069A9B0049
:100D90000899D318079A50183200019904339142E8
:100DA00001D133007DE79100DC68494244500132B3
:100DB000F3E701CA0439486079E77B680026180028
:100DC0001393FFF7DDFE25681390019B039A9B1890
:100DD000B34205D8119B002B26D14549EA0817E0FC
:100DE00013A8FFF7B7FE0222069B40005B689B68D2
:100DF000C35ADB0013439D4214D10A9B013B9E1B47
:100E00009640059B9E193368002B04D03949EA08A7
:100E1000354816F015F863683360029B08340133D7
:100E2000029363E70136D0E7626821680E980EF0FE
:100E30002EF8F2E70E68002E01D106680E60013C24
:100E40000431043861E70433191F0968002900D010
:100E500064E7D21A28499210DAE71398FFF790FE58
:100E60000136139062E713A8FFF774FE2A68002A80
:100E700016D1069B40005B689B68C65A109B002BEE
:100E800011D00223F1001943049B069804339B0000
:100E90001858043008F026FD002804D043682B6061
:100EA0000134043D48E732001449B1E7039A002AAF
:100EB00002D0134816F062FF029A1A4200D13FE7AF
:100EC00003980DF06DFF28603AE70A9B5C1E3378AB
:100ED0000136E41A059BA4001C1920680DF064F982
:100EE000206035E7C8F407108C260810603F081012
:100EF00065F6071036F6071086F60710B8F60710E5
:100F0000E8F6071010B50468E46844600400103483
:100F10008460FFF73BFE10BD10B504001034846000
:100F2000FFF734FE10BD000010B5402834D02DD896
:100F3000022398433C2829D1532922D8412925D975
:100F400042390800112921D87EF03AFA5920202090
:100F500020205615202015202015152320150F2898
:100F600014D87EF02DFA4C131613081349081313E6
:100F700008131313131601230420002A00D0136052
:100F800010BD6239CBB208000F2BE8D91D4816F00E
:100F900027FD01230820F0E7532918D8412904D858
:100FA000012318009942E8D0F0E7423908001129DE
:100FB000ECD87EF0DDF924EBEBEBEBEB1F09EBEB70
:100FC00009EBEB09091DEB0904231800D5E7623989
:100FD000CBB208000F2BD9D80F28D7D87EF0C8F98C
:100FE0000FD608D6F4D60AF4D6D6F4D6D6D6D60876
:100FF0000823EAE70223E8E701230220BDE70123F3
:10100000E3E7C0460FF7071010B5512812D8412862
:1010100003D8012823D000231DE042380F28FAD836
:101020007EF0A6F91DF9F9F9F9F92225F9F925F962
:10103000F94447316238C3B20F2BECD80F28EAD8F5
:101040007EF096F908E92DE928E90F37E9E937E953
:10105000E9E9E91A8B5601205B0018430BE08B5C31
:10106000F9E75200535EF6E75200535AF3E7920055
:1010700050580FF0C7FA10BDD2008A181068516896
:101080000FF02AFAF7E7D2008A18106851680FF0BB
:101090003EFAF0E7920050580EF066FAEBE7D20005
:1010A0008A18106851687AF0DBFBF5E79200505817
:1010B000E1E7920050580FF01EFADCE7F7B50700A1
:1010C0000C000126002A02D1421E9B18023E00207D
:1010D0000021002C06D0002200259A56D40F0021B2
:1010E0006042A941002211E0040E00940C02019418
:1010F000040225001C780132A4462C0065462C43CE
:101100002000009D019C9B1925432900BA42EBD188
:1011100003B0F0BDF0B585B0019203AA04000D0044
:101120001F001E68FFF700FF402C09D1039B019AA6
:10113000043CB61A5A1EB2185E42019B16409E1914
:101140005A2133183E3C3B60A942894163425C41CD
:1011500049423300E2B2FFF7B1FF06000F004F2D06
:1011600007D0532D07D17EF06BF90100300011F04C
:101170006DFC05B0F0BD662D03D0642D04D17AF06E
:101180006FFB0EF0F1F9F4E75A2D13D980220023FA
:10119000D20592197B4130001100002B06D180232B
:1011A0001B06994202D20FF0A6F9E2E739000FF0D0
:1011B00093F9DEE7002906D18023DB05984202D2AD
:1011C0000FF020FAD5E739000FF0A1F9D1E713B5F8
:1011D000040001931000002904D1220001A97CF031
:1011E000A7F813BD01AB1B191419A042F9D0013B9C
:1011F0001A7802700130F8E7F0B589B01F000E9B35
:10120000140005AA1D6801900291FFF78DFE019B55
:101210000600402B08D1059BED1B5A1EAA185D4203
:101220003C2315407D1901930E9AAB191360019B65
:101230003E3B03935F425F41029BFFB2642B12D09F
:10124000662B0BD04F2B2CD13000042E00D904205C
:1012500023002A003900FFF7BAFF2EE020000CF02F
:1012600083F80400F0E720000CF07EF87BF092FA9F
:101270001024BB00069007911B1904AA9B18083B79
:101280002A001B6839000420FFF7A1FF039B0435E7
:101290005A1E93419B001B1904AA9B18083B1C680B
:1012A000D2E7A3070BD10F4B22689A4207D12B003C
:1012B0003200390020000FF0C0F809B0F0BD200066
:1012C0000BF0D8FF0400042EBED9C117320028004D
:1012D000C9B27CF027F8019B3E2BB5D1331FED1826
:1012E000B2E7C046D82C081070B50C00712807D89A
:1012F000612806D801281DD04238C1B20F290DD966
:1013000070BD62380F28FBD87EF032F814FA25FA47
:101310001FFA162DFAFA2DFAFAFAFA190F28EFD851
:101320007EF026F808EEEEEEEEEE0A21EEEE21EE6D
:10133000EEEE210DA354E3E752001353E0E7D20091
:10134000A4182360DB176360DAE7180095007BF0D0
:10135000B1F96051D4E7D20018008C187AF038FA4D
:1013600020606160CCE792001351C9E7F7B5060031
:101370000F0014001D0064280DD0662804D04F28EB
:1013800013D19400E35105E0940018000F190BF0FD
:10139000EBFF3860F7BDD40018000F190BF0E4FF25
:1013A0007BF0F8F938607960F4E703232A001A40EB
:1013B00001921D4211D10E4B2A689A420DD10100B3
:1013C000019A4020FFF7B0FD23004343020001993A
:1013D0002800FB180FF031F8DCE728000BF04AFF7B
:1013E0002200030039003000FFF77EFFD2E7C0463D
:1013F000D82C0810D0231B061B68024A9B00985863
:101400007047C0469C7A002073B50C0001A9206883
:1014100011F0B6FE0500606811F084FE290000237B
:10142000019A08F0ADF90500A06811F07BFE56287E
:1014300007D00D4B984213D0552813D00B4816F007
:10144000CFFA01260A4908200BF07FFE0023040092
:10145000310028001A0015F0EEFD6060200076BD16
:101460000026EFE70226EDE7B90300001CF707109E
:1014700060F70710F0B591B00F0003900292FFF7EC
:10148000B9FF0369C5680193039B012B46D97C68AA
:10149000062C09D0A30704D1354B226826009A42B6
:1014A00004D0002016F06AFC2E00019C039B022B46
:1014B00009D0BB68062B06D09A07F2D12C4A1968CE
:1014C0001E009142EDD103233F681F4233D1294BC7
:1014D0003A689A422FD10461FFF78CFF03227B68A0
:1014E000C660134205D1244A1968914201D15B6854
:1014F0005C6004A80BF0F0FD002812D1786815F0AC
:1015000093FD04000BF0DCFDFFF774FF019B03610A
:10151000FFF770FFC560200011B0F0BD2E00019CE8
:10152000D1E7FFF767FF019B0361FFF763FFC5602A
:1015300005980BF0E5FD0122380004A90CF01CF918
:10154000029B002B0BD1049808F027F9012302938A
:1015500022003300029915F06EFD0400DBE79620AF
:101560000023059A0499C00008F00AF9F0E7C04684
:10157000DC1F081060F70710AC28081010B5022215
:10158000FFF778FF10BD10B50122FFF773FF10BD04
:1015900010B50022FFF76EFF10BD0000F0B587B058
:1015A000002806D159495A4809F040FF062007B0E3
:1015B000F0BD0E68574B9E4264D1002108000FF029
:1015C0002CFC002405000390534B5A68019294426E
:1015D00019D3039F514E3578002D22D1504A03A9CB
:1015E00001200FF077FA039805AA04A90FF02CFC4C
:1015F000049B03339B080193019B454EAB421FD1D3
:1016000030004849D0E79B680193019AE30099585C
:10161000002904D0042902D028000FF09DF90134DC
:10162000D2E730007DF00CFFC11E0400300011F045
:101630000DFA0134010038000FF08EF93619CAE7AF
:101640002F00059ABB00985811F082FD0100300070
:1016500009F0ECFE019BFF18049B9F420CD2122361
:101660001C1A002C06DD013CEBD330002E4909F09A
:10167000DDFEF8E71234F4E730002C4909F0D6FE1D
:101680000135B9E730000BF067FD0400204D284913
:10169000280009F0CBFE002130000BF08BFD280064
:1016A000E28824490AF056FA234B9C4224D17468FC
:1016B0000434002663689E4200D377E7A268F300F3
:1016C000D3181F68002F15D05B681C4928000193B0
:1016D00009F0ACFE002138000BF06CFD1849280021
:1016E00009F0A4FE002101980BF064FD28000F49C9
:1016F00009F09CFE0136DDE7124B9C4200D134001C
:10170000A36B1C1D002BD4D150E7C046FA5309101F
:10171000A813081012620000242F08101890091056
:10172000C41F08109CF70710D83F09104045091046
:10173000C0F70710C8F7071028300810D73F091066
:10174000D8F7071070420810D0231B061B68024A06
:101750009B0098587047C0469C7A002010B50849F5
:10176000082204007DF064FE01002000002904D15D
:101770000A00083007F07EFB10BD1CF0FBFDFBE704
:10178000ECF7071010B5040017F09DFAFFF7E6FF1D
:1017900002280DD063686D22991E200017F0FEFA12
:1017A000200017F090FAFFF7D9FF0023022800D19C
:1017B0000223180010BD000010B5040017F083FAD2
:1017C000FFF7CCFF012806D02000034917F0DAFA12
:1017D0002000FFF7D7FF10BD6D660910F0B587B088
:1017E00000AF7A6004000D00FFF7AEFFE221006950
:1017F0000DF0BEFA0600FFF7A7FF00690022284996
:10180000043008F06FF81423F860F918300011F074
:10181000B7FC7B690100C318F868421E9041241A86
:10182000002C05D18B420CD11E491F4815F0FEFA41
:101830008B42F7D9013B1A782E3A50424241A41A02
:10184000EEE75B1AFB607B681B68BB60BA68FB68ED
:101850009C186A46631C3B600733DB08DB00D31A25
:101860009D466E46FA6830007BF062FDBB68002B37
:1018700009D02E23FA682968501CB3543018BA686E
:101880007BF056FD3C682100300014F099FD14F007
:1018900078FEBD467B6828601C6007B0F0BDC0467E
:1018A0009A060000F5F70710CC22081070B5060064
:1018B0008EB018000C00150014F048FE0222C00083
:1018C0000243C021300015F015FDFFF73DFF03690D
:1018D00076680093FFF738FFC3680193FFF734FF82
:1018E0000661FFF731FFC66002A80BF0F5FB021E90
:1018F00011D12900200003F04BFF15F095FB0BF0F0
:10190000DFFBFFF721FF009C0461FFF71DFF019C37
:10191000C4600EB070BDFFF717FF009C0461FFF7B5
:1019200013FF019CC46003980BF0EAFBF0B50400C0
:1019300085B008000E0017F0C6F908221F490500FF
:101940007DF076FD002817D12F0008376A46380051
:1019500001A907F08FFA019B022B0DD100992300FA
:101960000A00083321CA21C33B00220089682000F5
:10197000FFF79CFF05B0F0BD7368EB18033B1B78C5
:101980006D2B08D12200290002A814F083FC2B0043
:10199000029A0399EBE7280007F0FFFE02220500F8
:1019A0000368C021DB0020001A4315F0A3FC626825
:1019B00001211300280015F03EFBDBE7ECF70710D0
:1019C000F0B50300B1B00868032B0AD9CA680592C4
:1019D000042B2BD00B695C10002B05DA002015F0CE
:1019E000FFFF06230024059307A911F0C9FB089007
:1019F000002C04D0200007AA08A9FFF7EFFE079BE0
:101A0000002BEBD000250126802110AA0CA817F08E
:101A1000FDF801950395079BB34209D2059B062B60
:101A200001D1039B0193019831B0F0BD0024DBE7A5
:101A30000898B34203D0835D2E2B00D093E0310091
:101A400014F0BEFC089B0700711B581914F0B8FC79
:101A5000049038000FF0F4FB019B0400002B00D031
:101A600083E04E480AAA09A90FF0EEF9099B002B62
:101A70003FD0019B029300230D93029B0A9A9B0087
:101A800098580BA911F07CFB0B9A0100002A06D094
:101A90000CA817F079F82F210CA817F02AF93800B4
:101AA00014F06FFD01000CA817F06CF90CA8FFF7FB
:101AB00083FE051E29D1029B099A013302939342AA
:101AC000D9D3002C49D175230E9C0498237014F0AF
:101AD00058FD0100601C7DF073FB200014F036FD02
:101AE0000FF088FB041E38D13A002D492D4815F01F
:101AF000A7F9380014F045FD01000CA817F042F9D1
:101B00000CA8FFF759FE051EDBD0002C25D13800AC
:101B10000FF04EFB0400012D3BD10D990E9810F0F3
:101B200095FFD3210200200015F0E4FB0CA81E490C
:101B30000D9D17F027F90CA8FFF724FE022803D10A
:101B400020000CA9FFF7F2FE0D95019B002B04D09D
:101B500022000499019815F0CDFB039B002B00D1C6
:101B60000394751C0194013655E72F210CA817F03A
:101B7000C0F8049814F005FD01000CA817F002F954
:101B80000CA8FFF719FE0500002CE1D10028BED1FA
:101B9000AAE70CA9FFF7CAFED7E7C046E87F0020F6
:101BA00013F80710CC2208102C67091007B5D321B1
:101BB0006A4615F0C3F80098431E9841C0B20EBDA6
:101BC000036A1B8B012B02D0C3685918C160704790
:101BD00010B50400836A406ADB6F9847238B226A42
:101BE00001339BB22383918C994200D2938410BD20
:101BF00010B50400038B013B0383836A406A0833FA
:101C0000DB6F984701212000FFF7DAFF10BDF7B521
:101C100007000C001E0000290DD003230D001D40FD
:101C2000194211D14B68D9B291420DD11B0A0193CF
:101C3000019B9D4200DBF7BD2300AA00083338005A
:101C40009958B0470135F3E721003800B047F2E773
:101C5000F0B589B004000D0005920693002B03D067
:101C60000823CA8A1343CB823022059BEB83236A65
:101C7000D98A0A43DA821B78002B44D1A36A29004F
:101C8000B4331E68059A069B606AB04709B0F0BD80
:101C9000D26AFB00D118D35C0791053B012B1FD8FA
:101CA000002318E0049BEA6ADB00D018D35C062B03
:101CB0000FD1079B5968436899420AD1079B606A14
:101CC0005A88A36A5B691E000023B047039B013357
:101CD0000393049B01330493049A2B8D9342E1DC1C
:101CE0000137226A138DBB42D2DC039B002BC5D087
:101CF000069AA36A0092B8331F682900059B039ACD
:101D0000606AB847C2E700270397EAE7F8B50F0013
:101D100011001A00002304008578066983700361AE
:101D20000F4BFFF774FF6368002B18D1618A0029FD
:101D30000BD0228A002A08D1A36A606AA0331B68EC
:101D40009847A36A606A5B6C9847238A3900200031
:101D5000628AFFF77DFF6B1E9D412661A570F8BD6D
:101D60002129001010B59D22024B8968FFF74FFF13
:101D700010BDC046D945001010B56B22024B8968D2
:101D8000FFF745FF10BDC0460943001010B5040021
:101D9000836A002188331B68406A9847A36A606A97
:101DA00010215B6B9847A36A606ACC331B680121E2
:101DB000984703212000FFF703FF10BD70B5040012
:101DC000836A00229B6C406A9847A36A606AC033AA
:101DD0001D6800231A001900A8472000FFF7D6FF4E
:101DE00070BD10B5836A896800225B6D406A09097D
:101DF000984710BD10B5836A89681B6C406A984784
:101E000010BD10B50400080011001A0016F020F9EA
:101E1000236A436000238360E369002B01D1E06102
:101E200010BD1A009B68002BFBD19060F8E770B5DD
:101E3000437804000D00012B06D1036A0A001B8BB6
:101E40000221FFF7DEFF2861AA6829694C232000E0
:101E5000FFF75CFF70BD70B51300427805000C0001
:101E6000012A04D10A000721FFF7CBFFA061A66970
:101E7000280031004623E268FFF748FFB08A70BDB2
:101E8000F0B589B005000C0000AF002902D1012196
:101E9000116018E0032319401C421CD1636879616A
:101EA000DBB2682B07D1E3681B091360A468012328
:101EB000002CECD07B610F232340022B0DD17B69DA
:101EC0002109002BE4D0AB6A00221B6B686A98479B
:101ED000BD4609B0F0BD0023ECE77B69002B02D1C1
:101EE000A3681B091360260063681B0A5A1E9B0027
:101EF0001B193A61FB60B3680436180914F038FB0B
:101F00003B691B183B61FB68B342F4D16A463B69ED
:101F100026000733DB08DB00D31A9D463B60BB601D
:101F2000B368043618091C23F91814F035FBFB6953
:101F300001001A00B8687B607BF0FAF97A68BB6828
:101F40009446FA686344B24218D13969386814F08B
:101F500037FAAB6A01001B6B0022686A98477B69FD
:101F6000002BB5D0FB680434A342B1D0A368002293
:101F70001909AB6A686A5B6D9847F3E75A1CBA6047
:101F80002E221A70CCE7002906D0032382680B406A
:101F9000134301D10B68836070470000436870B53C
:101FA0000D0004001100002B07D104480DF008F9C2
:101FB000290060602000FFF7E6FF70BD14260810BE
:101FC000F0B50D000162002142702B7891B00592AE
:101FD0000400894AC160072B2DD1059B012B05D038
:101FE000036B021D1B680599C06A98476378EF6808
:101FF000032B10D1380046210FAA0C307DF0C8F910
:10200000236B01009B680F9AE06A984763686883B6
:10201000002B00D0B9E03969002944D00F250D40CC
:10202000022D3CD10B097A2B3FD009D8432B3ED04F
:10203000632B09D0714A2000FFF7B0FF11B0F0BD4B
:102040006F4A03259342F5D17B6919210EAA0DA889
:102050000D937DF09DF900230A900993099B0A9A3C
:10206000934226D16378012B15D9236B29005B6835
:10207000E06A98476378042B0DD1206A0395438B5F
:10208000E26A029300230193009393680521D268CA
:10209000006903F064FB6368002B76D1CEE7200073
:1020A000584AFFF77BFF0225CEE70025CCE7012544
:1020B000CAE7099B9B000693069A0E9B9958FF223C
:1020C0004B681340082B02D1099B0133C5E7052B50
:1020D00001D04D4AAFE7CB68002BFAD1FF208B68C7
:1020E0005A6802402C2AF4D19E681D3A3240022AD6
:1020F000EFD1DB680893002BEBD09B07E9D1089B5D
:102100005B6807930340302BE3D10898A4210FAA02
:1021100008307DF03DF93D4B360907909E421CD1B9
:10212000012805D10F210F9A13680B40022B04D010
:10213000374A0E9B069959587DE7E1684B1CE360CE
:10214000059B012B1DD01268236BE06ADB68120926
:102150009847002815D12F4AEBE72F4B9E4217D105
:10216000079B012B04D10F9B1968079B194201D1D2
:102170002A4ADEE7059B012B03D0E06A4910FEF7EF
:10218000D1F96368002B9FD0089F3B68A36055E797
:10219000DE23FF339E4222D1079B012B06D9012665
:1021A00001220F9B1B681E40134201D11C4AC0E74D
:1021B000059A012AE5D05B100B930F9AB3009A5849
:1021C00001231A4201D1174AB3E70B99E06A521072
:1021D000FEF7AFF9079B0136B342EED1D1E7059B7D
:1021E000012BCED0236B31001B69079A9C46E06A15
:1021F00066460F9BB047C4E734F8071058F807103D
:10220000CB0B000065F807108DF80710E503000000
:10221000B0F80710CCF80710E5080000DCF807104C
:10222000F8F807101DF9071010B5024AFFF7B6FEBF
:1022300010BDC0463FF907104B6870B5DBB2040013
:10224000092B10D1858A094B9D4203D12000084AF1
:10225000FFF7A4FE638B228B2900D21AA36A606A5F
:102260009B6F984770BDC58AEDE7C046FFFF000031
:102270005CF9071070B500260500B14210D00F239D
:102280000B40022B0ED10C0920000AF0DDFE061EC9
:1022900006DA2200054906480DF01CF800266860A1
:1022A000300070BD034AFFF779FEF9E77CF90710AB
:1022B000402708106CF8071010B5040062780B0076
:1022C000006A012A02D115F000FF10BDA16A0200C8
:1022D0001431606A03F007FAF7E7000070B50500F3
:1022E0000C1E1AD0CB0705D5836A49109B6B686A10
:1022F000984712E08B0714D00F2309091C40022CC9
:1023000009D0062C0AD0062907D0836AC9B25B6BB4
:10231000406A984701E0FFF7CFFF70BD836ADB6B2F
:10232000E5E7836A09681B69406A98476368034A5E
:10233000DBB29B00210028009B58D9E748FC07101E
:10234000F0B504000D001700032685B001932800A6
:102350007CF0A6FF002805D0002F1DD1A36A0199AB
:10236000DB6E48E028007CF03BFF002802D0002F05
:1023700012D0F3E7002D4DD035424BD16B681A0ACD
:102380000292FF2213401E2B1CD1002F1ED0029B55
:102390009E007619AE420DD105B0F0BD2900012294
:1023A000B00008310958039B20007A40FFF7C8FFAE
:1023B000013610E0A9683A002000019BFFF7C0FF3A
:1023C0000435E7E71F2B19D1002FE0D00026E36882
:1023D00003930133E360029B013BB342DEDC029EC8
:1023E000019B0136B60071593A002000FFF7A8FFA3
:1023F000A36A0399DB6A606A9847CDE7202B03D173
:102400001F3BAD685F40A2E72D2B03D1AB68002BCB
:10241000ADD1A1E729002000FFF760FFA36A3900D2
:102420001B6F019A606A9847B6E70000036A70B5AF
:102430001B780400072B05D0022B03D0144AFFF7AA
:10244000ADFD70BD8D68002D0FD1A36A10215B6BAF
:10245000606A9847A36A606ACC3300211B6898477A
:1024600001212000FFF7ACFBEBE7AB070BD16B685A
:10247000DBB2AF2B07D12000A968FFF72FFF2000A8
:10248000FFF784FCDDE729002000FFF727FFE1E7E5
:102490008EF9071070B5437804001500CE68012B43
:1024A00006D1036A0A001B8B2900FFF7AAFC7061A2
:1024B0000023200071691A00FFF7CAFB2000F168B1
:1024C000FFF70CFF062D05D1A36A002188331B6896
:1024D000606A9847A36A0121BC331D680023606AC3
:1024E0001A00A84770BD70B50D000400C968FFF759
:1024F000F5FEA9682000FFF7F1FE70BD4B6870B5CE
:10250000DBB204000D00342B11D18968FFF7E6FE21
:10251000ED68AD68002D10D1A36A10215B6B606A75
:102520009847A36A0422A03302211B6819E0836A3A
:1025300010215B6B406A9847EBE70326354225D1B3
:102540006B68DBB29A2B0FD1A36A10215B6B606AB8
:102550009847A968002910D10422A36A0231A03348
:102560001B68606A984770BD9B2B0FD1A96820003B
:10257000FFF7B4FEEB689968ECE72000FFF7AEFECA
:10258000A36A0422A03331001B68EAE72900200077
:10259000FFF7A4FEC5E710B504008968FFF79EFEAB
:1025A000A36A00211B6D606A984710BDF0B58D6865
:1025B00087B004000292002D09D1002A26D0022201
:1025C0002900836AA0331B68606A98471EE00327CE
:1025D0002B003B4001933D4200D08FE0FF266B680B
:1025E0003340372B14D1029B002B06D0836A022282
:1025F000A03301211B68406A984720002900FFF79B
:102600006DFEA36A606AA4331B68984707B0F0BDEB
:102610009F2B73D1E86843683340A12B5ED1A22180
:10262000083005AA7CF0B4FEA9680390002926D0E2
:10263000394224D14B681E40372E20D1029B002BFB
:1026400006D0A36A411CA03302221B68606A984727
:102650002000A968FFF742FEA36A606AA4331B68E2
:1026600098470127019B039A93420DD1002FCDD1AA
:102670001900A36A0322A0331B680131A4E72000DC
:10268000FFF72CFE0027EDE70026019B059A9B0033
:102690009958B14208D00323194205D14E68FC3342
:1026A0001E40373E73425E412000FFF717FE002FA9
:1026B00010D0002E05D1164A29002000FFF76EFC2D
:1026C000A4E7A36A606AA4331B689847019B01339F
:1026D0000193C7E7002EF9D00E4AEDE7AB68002B57
:1026E00006D03B4204D15B6804221E40372E00D046
:1026F000052229002000FFF7CDFE87E729002000F2
:10270000FFF7ECFDA36A0322A03301211B685BE7FE
:10271000A7F90710C4F9071010B50122FFF746FF0B
:1027200010BD70B50D00C9680400FFF7D7FDAB6898
:1027300002211B09DBB2342B01D0403BD9B2A26A83
:10274000606A98321368984770BDF8B54B680C0002
:10275000896805001F0A0026FFF7C0FD0C34023609
:10276000B74200DCF8BD61682800FFF7B7FD2368B9
:10277000686A1909AB6A25399C331B68C9B2984746
:102780000834ECE7F7B54B680D001F0089681B0A99
:10279000040001930126FFF7A1FD0D3FFFB2019B4D
:1027A0009E4200DBF7BD2B00B20008339958200091
:1027B000FFF794FDA36A39009C331B68606A984751
:1027C0000136ECE7F7B54B680D001B0A89680093EA
:1027D0000400FFF783FD009B0027032B02D9E76865
:1027E0007B1CE36001260C350195009A731C9A420C
:1027F00021DC032A1EDDE568606A6B1CE360A36AC6
:102800002900DB6E9847A36A3900DB6A606A984743
:10281000A36A0121DB68606A9847A36A606A5B6EFD
:102820009847A36A606A1B6E9847A36A2900DB6A0F
:10283000606A9847F7BD019B20005968FFF74EFD7D
:10284000009B02369E4207DAA36A606A9B6D984736
:10285000A36A606A9B6E98470F21019BA26A1B685E
:102860009C321268606A19400A2914D11B09DBB234
:102870000439262B01D0353BD9B29047009B9E42AC
:1028800005DAA36A3A0000215B6F606A9847019BF2
:1028900008330193A9E7FF2559682940852901D10B
:1028A0005339EAE79B680721002BE6D03321E4E7A0
:1028B00010B504008968FFF711FDA36A032198335E
:1028C0001B68606A984710BDF7B54A680E00D3B21E
:1028D0001E3B59424B4104000025C768DBB20193FF
:1028E0007B1CC360130A0093009B9D4205DBA36A17
:1028F0003900DB6A606A9847F7BD3300AA000833E5
:1029000099582000FFF7EAFC009B01359D42EEDA62
:10291000A36A3A005B6F0199606A9847E4E7000098
:102920000F2370B50B400400022B11D04B68DBB2B3
:10293000492B01D04F2B02D10123A37070BD4A2B2C
:10294000FCD0502BFAD0482B0DD10D69002D0CD1A5
:10295000A378002BF2D1638A002BEFD020001D4A10
:10296000FFF71CFBEAE7CD68F0E7A378002B28D03F
:10297000238A8E6801339BB22382012B0FD1618A97
:10298000A36A606A002919D0A03300221B68984707
:10299000A36A0222A03300211B68606A98472900BD
:1029A0002000FFF79BFCA36A606ADB6B3109984744
:1029B000A36A606AA4331B689847BFE75B6C9847BB
:1029C000E6E7638A2900013320006382FFF786FC73
:1029D000B4E7C046E3F90710F7B504000E00C56878
:1029E000CF686B1C0193AB1C0022B968C3602B003D
:1029F000FFF7A6FCB1682000FFF770FCA36A691C12
:102A0000606ADB6E9847A36A2900606ADB6A9847B0
:102A10000121A36A606ADB6849429847F96820008F
:102A2000FFF75CFCA36A0199DB6A606A9847F7BD0F
:102A3000F0B5436985B00393C668438B771C029356
:102A4000B31CC360038B04008682C78243838868FB
:102A50000D007CF025FC002821D1E368A8680193D3
:102A60000133E3607CF0BCFB002804D1A36A390089
:102A7000DB6E606A9847A36A0199DB6A606A9847CF
:102A80002000E968FFF72AFCA36A3900DB6A606A64
:102A9000984701222000019BA968FFF751FC039B86
:102AA00020006361029B29696383FFF717FCA36A17
:102AB0003100DB6A606A984705B0F0BDF0B5C668C2
:102AC0000400731CC36087B088680D007CF0E8FBCD
:102AD000021E26D1E76820007B1CA968E3603B004A
:102AE000FFF72EFC2000E968FFF7F8FBA8687CF0F0
:102AF00077FB002826D12B69002B02D16B69002BB4
:102B00000AD0A36A606A9B689847002804D1A36A28
:102B10003100DB6E606A9847A36A3900DB6A606A3D
:102B200098472800712105AA10307CF031FC002361
:102B300003900193019B039A93420AD12000696993
:102B4000FFF7CCFBA36A3100DB6A606A984707B0E5
:102B5000F0BD019B059A9B009F58B8687CF0A0FBD4
:102B6000021E21D1E368200002930133B968E360BB
:102B7000029BFFF7E5FB2000F968FFF7AFFBB868A1
:102B80007CF02EFB0028DDD1A36A606A9B68984721
:102B9000002804D1A36A3100DB6E606A9847A36AFB
:102BA0000299DB6A606A9847019B0133C1E770B5FF
:102BB0008D680400002D06D12900836AC8331B6884
:102BC000606A984770BDAB070FD16B68DBB25E2BB4
:102BD0000BD1A968FFF782FBE9682000FFF77EFBB5
:102BE000A36A0221C8331B68EAE729002000FFF727
:102BF00075FBA36A0121C8331B68E1E710B5040027
:102C00008968FFF76BFBA36A606A1B6E984710BD6B
:102C1000F8B505000C004B681E0AB700CF19BC427E
:102C200007D1AB6A3100A033686A00221B6898475D
:102C3000F8BDA1682800FFF751FB0434EFE789686D
:102C400010B5002906D1836A0A00A0331B68406AC8
:102C5000984710BD4B681B0A022B0CD1CB68002B88
:102C600009D09A0707D15B68DBB2AC2B03D10622EF
:102C7000FFF710FCEDE7FFF7CBFFEAE7F8B505003B
:102C80000E0000244B681F0ABC420FDA3300A2007A
:102C9000083399582800FFF721FB6B68002B06D0FA
:102CA0000234A4002800A159FFF76DF9F8BD0134E2
:102CB000EAE710B50400FFF7E1FFA36A22219C3385
:102CC0001B68606A984710BD70B58D680400002DC0
:102CD00007D101222900836AA0331B68606A9847E4
:102CE00018E00322154221D16B68FF201900014032
:102CF00092291BD11B0A022B0DD1E96800290AD0A9
:102D0000114208D14B680340AC2B04D129002000AC
:102D1000FFF7C0FB70BD29002000FFF7AFFFA36ADB
:102D20006968A03301221B68090AD7E7290020003F
:102D3000FFF7D4FA0122A36A1100A0331B68CDE784
:102D4000F8B5D323174A9B00D75804000D00002F75
:102D500026D1C6680122731CC36089683300FFF75F
:102D6000EFFAA36A242101229B69606A9847E96807
:102D700000290AD02000FFF7B1FAA36A3A00BC3359
:102D80001D6801213B00606AA847A36A0121C8337E
:102D90001B68606A9847A36A3100DB6A606A9847DB
:102DA000F8BDC0463C7F0020F8B5036A04001B78DC
:102DB000072B03D01B4AFFF7F1F8F8BD8D68002DF3
:102DC0000AD1836A10215B6B406A9847A36A606AE4
:102DD000C4331B689847F0E703232A001A401D42BA
:102DE0001ED16B68DBB21B2B1AD1C668EF68731C4F
:102DF000C360B9683300FFF7A3FAA9682000FFF7A2
:102E00006DFAA36A606AC4331B689847A36A3100ED
:102E1000DB6A606A9847F9682000FFF75FFAD5E738
:102E20002900F9E711FA071010B50B004178026A82
:102E3000012904D11900100002F045FC10BD816A7F
:102E4000406A1C3102F04FFCF8E70000F7B5032799
:102E500004000D00160039420CD00F230B40022B4A
:102E600013D10909D30702D4FFF7DEFFF7BDFFF73F
:102E700023FAFBE74968FF200B0003402D2B7CD091
:102E800009D8062B0CD02C2B13D0290020004E4A39
:102E9000FFF784F8EAE72E2B00D183E09D2BF4D1D5
:102EA000002EF2D12A00090A0832200000F0F8F8BA
:102EB000DCE7022A03D02000A968FFF70FFAEB68CD
:102EC0000093002BE1D00323009A00991A40194285
:102ED000DBD14B680F00D9B28E2909D11B0A17002C
:102EE0000193022E1AD1019B009A01339B009F5837
:102EF0007B68DBB2312B26D1022E14D1A36A606A23
:102F00009B6E9847A36A01211B6D19E0009BBA00D4
:102F1000083320009958FFF7E1F90137019B013B85
:102F20009F42F3DBDFE72000B968FFF7D7F9A36A18
:102F3000012EE8D1DB6D606A98470021A36A1B6D02
:102F4000606A984792E7322B9FD1A36A606A012E8C
:102F500009D19B6D98470022A36AB9685B6D090986
:102F6000606A984782E7022E01D15B6E9847B96884
:102F7000A36A01225B6D0909F2E7AA68002A84D0DE
:102F8000002E82D15368190A022909D1D368002B77
:102F900006D0980704D15B68DBB2AC2B00D174E794
:102FA000083282E7002A00D06FE7A9680A1E00D124
:102FB0007BE7394203D14B6818409228E2D02A00BF
:102FC0000121083271E7C0462BFA0710F7B504005B
:102FD0000D00C6680193B31CC360836A3100DB6ACD
:102FE000406A00929847A36A771C8C3339001B68AB
:102FF000606A9847A96800222000FFF727FF2D6923
:10300000002D2DD120000099FFF768F9236AA06AEE
:10301000197806291CD1CC3003682900606A9847CA
:1030200020000121FEF7CCFDA36A606A1B6E984761
:10303000A36A3100606ADB6E9847A36A3900606A50
:10304000DB6A9847A36A606A90331B689847F7BDAC
:10305000019BA8309A0005680532606AA847E7E737
:10306000FF226B681340AD2B07D1A9683300002203
:103070002000FFF765F9ED68C2E72000E968FFF777
:103080002DF9A36A606A883301211B689847019B68
:1030900029002000009A0133FFF798FFC8E70000DD
:1030A000F0B5012705000C0085B002910392019252
:1030B0007F42029B1E1B002C15D17B1C05D1AB6AE5
:1030C0003100AC331B68686A9847B4422AD0039A2F
:1030D000A300D1580022A74200D189682800FFF739
:1030E000B5FE0134F1E7019B1968002911D00323D3
:1030F00019420ED1FF224B681340222B09D17B1CB1
:103100000CD1AB6A3100B0331B68686A621E984705
:103110003700019B013C04330193CAE72800024AAF
:10312000FEF73CFF05B0F0BD46FA0710F0B585B0DC
:1031300004001F0001910292002904D13900FFF719
:10314000CDF805B0F0BDC668731CC360029B1D6856
:10315000002D2CD003232A001A4003921D4226D1B1
:103160006B68DBB27B2B22D1A968FFF7B7F831007F
:103170002000039AFEF72CFD2000039AE968FFF770
:1031800065FE029A019904323B0020000139FFF7E5
:10319000CDFFA36A31000433DB6F606A98472000DB
:1031A0000321FEF70DFD2000FEF722FDC9E72900EF
:1031B0002000FFF793F8200000223100FEF708FD01
:1031C000A36A606A1B6E9847DBE737B50500080005
:1031D0000C0001AA7A2108307CF0DAF8E3680100DB
:1031E000019A2800FFF7A2FF37BD0000F0B50D00DF
:1031F0000F21AB6804008BB00B40022B00D001E123
:10320000EB68002B00D1FDE00322134200D0F9E06F
:10321000FF205A6802402C2A00D0F3E09A6811403F
:10322000022900D0EEE01209812A00D0EAE0DA6833
:1032300053681840302800D0E4E09368A23109AA0E
:1032400008A808937CF0A4F8431E022B00D9D9E00B
:10325000099B1E68012800D1C7E05F68022800D1E1
:103260001CE19B680193DB0700D4CBE0019B5B1062
:1032700000D1C7E0002E07D0B30705D17368DBB2D9
:10328000A63B022B00D8BDE0002F07D0BB0705D11D
:103290007B68DBB2A63B022B00D8B3E0AB683A00F8
:1032A00004932B6905936B69E56803936369A582B1
:1032B0000793638B06936B1CE382238B63832B1D25
:1032C000E36001231A4002921F4203D1390020001B
:1032D000FFF704F831002000FFF700F8A36A606AE6
:1032E000DB6EE91C9847A36AA91CDB6A606A9847F1
:1032F000A36A606A9B6D9847002220000499FFF73B
:10330000A5FD20000599FEF7E9FFA36A606ADB6A64
:10331000691C984720000199FEF7E0FFA36A0E217F
:103320009C331B68606A9847A36A606ADB6AE91C81
:103330009847029AA36A002A5CD1DB6D606A9847BD
:10334000A36A606A5B6E9847A36A019A9C33002166
:103350001B68606A002A00DA012100269847A36AE8
:1033600001211B6F606AAA1C9847079B6361069B3B
:103370006383039BB3421ED0A36A606A1B6E9847A7
:10338000029BB34203D1A36A606A1B6E9847200078
:103390000399FEF7A3FFE668606A731CE360A36A03
:1033A0003100DB6E98470121029B606A5940A36A95
:1033B0000131DB689847A36A2900DB6A606A984795
:1033C000A36A606A1B6E9847029B002B03D1A36A15
:1033D000606A1B6E9847039B002B04D0A36A3100E0
:1033E000DB6A606A98470BB0F0BD03233700019396
:1033F000060049E7606A9B6D984739002000FEF798
:103400006DFFA1E76369E6680293638B771C019304
:10341000B31C0393238B20006383224BE96833435F
:10342000A382F31CE360E782FEF758FFA36A012141
:1034300088331B68606A9847A36A3900DB6A606A50
:103440009847A36A606A8C331B68B11C98470022B6
:103450002000A968FFF7FAFC20002969FEF73EFF6B
:10346000A36A606A9B689847002804D1A36A390060
:10347000DB6E606A9847A36AB11C606ADB6A984792
:10348000A36A606A90331B689847029B20006361BF
:10349000019B69696383FEF721FF9FE70323019383
:1034A000E8E6C0460080FFFFF0B587B00400019158
:1034B00002920393002904D10399FEF70FFF07B08E
:1034C000F0BDC668731C0493B31C0093331DC36026
:1034D000029BF71C1D68002D00D1F0E003232A0099
:1034E0001A4005921D4200D0E9E06B68DBB27B2BED
:1034F00000D0E4E0A968FEF7F1FEA36A606A9B6D64
:103500009847AE212000FEF759FC2000059AE96893
:10351000FFF79CFC022231002000FEF759FBA36A52
:10352000606A0321DB689847029A019904322000FF
:10353000039B0139FFF7B8FF0321A36A606ADB68C8
:1035400049429847A36A1021606A5B6B9847A36A57
:10355000606A5B6E9847A36A606A711CDB6E98476D
:10356000A36A3100606ADB6A9847A36A606A9B6D50
:103570009847A36A0122606A26219B699847A36A3B
:10358000606A9C3308211B689847A36A009A00214F
:10359000606A1B6F9847A36A606A9B6D9847A36A2D
:1035A000606A9B6E9847A36A606A5B6E9847A36ADD
:1035B0000022AF21606A9B6C9847A36A606A9B6E89
:1035C0009847A36A606A9B6E9847A36A606A9B6D7E
:1035D0009847A36A00220F21606A5B6D9847A36A2F
:1035E000606A5B6E9847A36A606A10215B6B9847BC
:1035F000A36A0321C0331D680023606A1A00A8472C
:103600002000FEF7C3FBA36A3A000021606A1B6F2B
:103610009847A36A606A1B6E9847A36A606A102184
:103620005B6B9847A36A3900606ADB6E9847A36AB0
:10363000606A0221DB689847A36A0099606ADB6AC6
:103640009847A36A606A9B6E9847A36A606A9B6EFC
:103650009847A36A0499606ADB6A9847A36A0022C4
:10366000606AAF219B6C9847A36A1021606A5B6B0C
:103670009847A36A606A9B6D9847A36A606A9B6DCE
:103680009847A36A0321C0331D680023606A1A00AB
:10369000A8472000FEF77AFBA36A606A1B6E984772
:1036A0000121A36A606ADB6849429847A36A606A9D
:1036B0003900DB6A98472000FEF79AFAFFE62900F6
:1036C0002000FEF70BFEA36A606A9B6D98472000FE
:1036D000AE21FEF773FBA36A606A1B6E984719E779
:1036E000F7B5CD6804000E00002D27D10378002B1C
:1036F00017D0036A1D78002D13D1D821FEF7DCFD09
:10370000B1682000FEF7EAFDA36A2A00BC331E68F8
:1037100001212B00606AB047A36A606A1B6E98475C
:10372000D0E0B1688B0700D1C4E00F230B40022B1F
:1037300000D0C7E02000FEF7D1FDEDE7AB0700D0D9
:10374000C1E06B68DAB25B2A13D1ED68002D00D0BE
:10375000B9E0006A0378072B00D0B3E0896808332A
:103760000B40022B00D0ADE00909573A14F0ADFC34
:10377000A8E0562A13D1553A8968FFF767FB200065
:10378000E968FEF7ABFDA968A36A09093F399C33D4
:103790001B68606AC9B298470222B16886E0572A5E
:1037A00000D090E01B0A5F1E01339B005959FEF7C1
:1037B00095FD002F03DDA36A606A9B6D9847B16891
:1037C00000222000FFF742FB0026BE427ADA0136D3
:1037D000BE4203DAA36A606A9B6D9847291DB30055
:1037E00000222000C958FFF731FBEEE76B68FF218C
:1037F000180001930840062869D1B768002F66D0E9
:10380000174264D1786803000B40062B5FD1030A8E
:1038100000930098019B1B0A834258D10300023B8E
:10382000012B54D8BB68002B05D0134203D15B6831
:103830000B40222B4BD0FB68002B05D09A0703D1FD
:103840005B68DBB2222B42D0009B022B08D03B6985
:10385000002B05D09A0703D15B68DBB2222B36D050
:103860002000A968FEF73AFD2000E968FEF736FD62
:10387000009B032B07D120002969FEF72FFDA36AC7
:10388000606A9B6E9847A36A606A5B6E98470022E5
:103890002000B968FFF7DAFA00222000F968FFF784
:1038A000D5FA009B032B0DD1002239692000FFF7C8
:1038B000CDFA07E0002900D13CE74B68DBB23A2B98
:1038C00000D037E7F7BD0322154200D18EE729006B
:1038D0002000FEF703FD00225FE700000023F7B59C
:1038E000C360030034334270016204000D0017000E
:1038F0001A70032A03D1C08E002824D1A0630026A9
:10390000A36A39002A001B68606AE6869847062188
:103910002000FEF755F96778012F01D16E84AE843F
:10392000EE68002E13D0B30711D17368DBB23F2BC2
:103930000DD12000B168FEF7D1FCA36A606AC433E0
:103940001B68984731E0800005F06BFFD6E72B78C5
:10395000002B09D131002000FEF7C0FCA36A102122
:103960005B6B606A9847E8E7072B23D1012F12D1E0
:103970000023A37046225E4B2000F168FEF747F952
:103980002B8B032B07D120003169FEF773FC8301D9
:10399000E88A1843E88220007169FEF79FFCA36A59
:1039A000606A9B6898470028D8D0A36A606A5B6801
:1039B0009847FEBD022B1BD1A36A31681B69606A60
:1039C00098476378012B07D10023A3704C22200075
:1039D000484BB168FEF71BF92000F168FEF77EFC4A
:1039E000EB8ADB07A9D5A36A606A1B6E9847B5E727
:1039F000033B032B4FD8F3680193012F05D1042219
:103A00003900206A14F061FB6F83A36A31681B6977
:103A1000606A98472B78032B24D10122A36AA03334
:103A20001B680021606A98472B78062B28D1A36A6F
:103A3000606A5B6C984701212000FEF73DFCA36A99
:103A4000606A5B6C9847A36A606A5B6C9847002366
:103A50002000B2680199FFF7B9FA2B78062B00D045
:103A60006BE77BE7042B04D1A36A0222A0331B6817
:103A7000D7E7052BD8D1A36A0322A0331B68D0E770
:103A800020000121FEF718FCA36A012188331B687E
:103A9000606A9847DBE7012F04D104220F21280038
:103AA00014F013FB1C212000FEF706FC1B21200054
:103AB000FFF7BAF9B368606A1909A36ADB6B984724
:103AC0001F212000FFF7B0F920003169FEF706FC46
:103AD0000F21280014F0E9FA0278A36A042A00D121
:103AE0003DE742885D690F210023606AA84724E70B
:103AF00079480010854800100F2370B50B40040072
:103B00000D001600022B02D00B4AFEF747FA3100D7
:103B10002000FEF7E3FBA36A606A9B6D9847266A64
:103B20003378033B032B01D87368236229092000F3
:103B3000FFF77AF9266270BD2BFA0710F0B589B04D
:103B4000059104920400A42107AA05A81E007BF099
:103B50001FFC00231F000390019302930093019B1D
:103B6000039A934213D1002F04D0A36A02999B6B4E
:103B7000606A9847049AA36A606A002A00D177E0D5
:103B8000C0331C6831003B00009AA04715E0019B40
:103B9000079A9B009D58002D5ED003231D425BD1E8
:103BA000FF216B680B40A62B1AD1A43B1F4206D005
:103BB000304A29002000FEF7F1F909B0F0BD019B61
:103BC0001D2B01D92C4AF4E70123019A1F4393408E
:103BD000029AA9681A4302922000FEF77FFB23E0B5
:103BE000A72B10D1A53B1F43A36A606A5B6C984763
:103BF000A9682000FEF772FB009B01330093019B34
:103C000001330193ABE7A82B26D1EA68002A0FD035
:103C1000A53B1A420CD153681940AA2906D12000AD
:103C20009268A968FFF768FF0136E8E7AC290DD074
:103C30000F23A9680B40022B01D0104AB9E7A36AF1
:103C40000909DB6B606A9847E968D2E70622290018
:103C50002000FEF71FFCE7E702231F4201D0084ABD
:103C6000A7E7009B002B01D0064AA2E72900B3E793
:103C7000BC3386E760FA07106FFA07107DFA071069
:103C80009EFA0710B6FA071070B50D0041780400CF
:103C90001300012903D12A00FEF7B3F86861A36A73
:103CA000606ADB6C984700236E691A0031002000BF
:103CB000FDF7CEFFA36AB18ADB6B606A9847E968BB
:103CC000002909D003230A001A40194204D14B6885
:103CD000DBB2A32B00D11100200002230022FFF74A
:103CE0002DFFB08A70BD002310B51A008968FFF758
:103CF00025FF10BDF7B50C0089680500FEF7EEFA48
:103D0000E668002E2FD07368DAB28E2A2CD02600F7
:103D100001230C360093A3680F211A00286A00249F
:103D200000780A40072800D079E0022A4FD11A090A
:103D30009F2A00D075E030684268D2B2302A00D0A5
:103D40006FE08268A24200D06BE02800FEF7B4FA70
:103D500001212A6AD36A128D002A09D12800464A15
:103D60003168FEF71BF9F7BD1B0A00930836D2E74E
:103D70005878084210D059682800FEF79DFA009A3A
:103D8000AB6A022A0BD8BC331C68002302211A003C
:103D9000686AA04701241AE0013A0833DCE7FF22F1
:103DA0007068416811403229EDD1B46861680A40F9
:103DB000302AE8D181689B6C686A09092F3A9847D4
:103DC000A168002301222800FFF7B8FE0324009B0E
:103DD000A342C8D9631C00980193621CA300F15848
:103DE000824244D2FF204A680240322A3FD1F3186F
:103DF0005F687B680340302B39D18968AB6A002249
:103E00009B6C686A09099847002301222800B96859
:103E1000FFF794FE019C0134D9E70024D7E7022A7A
:103E2000D5D1164A00241B099342D0D1FF21336813
:103E30005A680A40302ACAD19C68002CC7D0032394
:103E400022001A401C42E8D1636814000B402F2B5B
:103E5000BDD1AB6A1100BC331F68686A1300B84754
:103E60003368220028009968FEF7A0FB92E728003B
:103E7000FEF734FA0194CDE7D7FA0710740C00006E
:103E8000036A10B51B780400072B05D0022B03D062
:103E9000054AFEF783F810BD2000FFF72BFF200036
:103EA000FDF774FFF7E7C046EFFA071010B5CA68D0
:103EB0008968FFF721FE10BD10B5036A04001A8B54
:103EC000FFF7E2FE01002000FEF7AEFF10BD10B5C7
:103ED000036A04001A8BFDF7BEFF01002000FEF705
:103EE000A3FF10BDF0B58D6804006B6887B0DBB22E
:103EF000032B09D12900FFF7EAFF0123AA69D18A20
:103F00000B43D38207B0F0BD0121026AD28A0A4274
:103F100004D129005D4AFEF741F8F3E7162B00D0E3
:103F2000A6E0E968C6680B090193331DC360FEF77C
:103F3000D5F9A36A606A0022B0219B6C9847A36AF6
:103F4000606AC0331B681F0000231A001900B847BD
:103F500020000199FEF768FF6369606A0393638B31
:103F60000293E3681F00013300933B000233E360D8
:103F7000009B0099E382238BA7826383A36ADB6A99
:103F8000984701222000B118FDF722FE2000019978
:103F9000FEF792F92000B221FDF710FF2000A9687A
:103FA0000022FEF753FFA36A00229433606AB11C1B
:103FB0001B689847A36A711C606ADB6A9847A36A0A
:103FC000606AD0331B689847A36A606A9B6D984704
:103FD000A36A0122606A9B692D499847A36A606AB7
:103FE0009C3308211B689847A36AF21C0021606A71
:103FF0001B6F9847A36A606A1B6E9847A36A0122E9
:1040000094333100606A1B689847A36A606AF11CA8
:10401000DB6A9847A36A0121DB68606A9847200041
:10402000FDF7E6FDA36A606AD4331B689847A36A6C
:10403000606ADB6AB11C984720002969FEF74EF9D7
:10404000A36A0099606ADB6E9847039B3100636145
:10405000029B606A6383A36ADB6A984720006969F0
:10406000FEF73CF9A36A3900DB6A606A984749E7C2
:10407000280005AA7A2108307BF08AF9EB68010054
:10408000059A2000FFF710FA3CE7C04608FB07102E
:104090004F0C0000F0B50400080089B0059108300D
:1040A000422106AA7BF074F90027236A03901D8B36
:1040B0000197039B9F420BD1059BD9684B68DBB2EC
:1040C000032B51D12A002000FDF7C5FE050059E061
:1040D000069ABB009B586C21180007AA083004936D
:1040E0007BF056F9079B029019680A09782A0ED0CE
:1040F0002000FEF7F3F80126029B9E4229D3049B81
:10410000D96800290DD02000FEF7E8F809E0029AEE
:10411000022A08D02000294AFDF740FF019B013305
:1041200001930137C5E759680B09462B0BD0E522EF
:10413000D200934209D0224A934208D0214A9342A6
:10414000E8D10425EAE70125E8E7029DE6E7032533
:10415000E4E7079AB3009958A36A00225B6D606A8E
:10416000090998470136C7E7442B17D18E682A0002
:1041700031002000FDF76FFE01230500B269D18AEE
:104180000B43D3820026039B019A9B1AB3420AD8A1
:1041900029002000FEF748FE09B0F0BD2A002000EB
:1041A000FFF772FD92E7A36A0121BC331F68002369
:1041B000606A1A00B8470136E5E7C0462EFB0710D3
:1041C0004B050000E70300000F23F0B58E680400E4
:1041D0000D0085B033400A2B07D0002E30D0B30736
:1041E0002ED17368DBB2652B1CD1029600266521A7
:1041F00003AA02A87BF0CCF80021039B80003F4A71
:10420000C018984214D13E4BEA689A4236D1236ACC
:104210001F78002F16D0290020003A4AFDF7BEFE75
:1042200005B0F0BD622B0BD1B3680293F668DEE7F0
:104230001F68974202D101310433E2E70331FBE703
:104240000021E0E7A36A606A9B6B9847A36A606AF3
:104250000521DB6B9847A36A3A00A0331B68606AAC
:10426000012198473100200003AAFDF709FEA36A47
:10427000022239001B6B606A9847D1E7A36A606A23
:104280009B6B984728006A210C3002AA7BF080F8CB
:1042900000270500A36A606AAF4211D1A033002253
:1042A00029001B6898473100200003AAFDF7E8FDAC
:1042B0000026A26A606AAE420BD1136E9847AFE740
:1042C0000299BA005258DB6B916801370909984787
:1042D000E0E70299B3005F58BB681B09019301999D
:1042E000136B01229847F968002905D10199200034
:1042F000FEF79AFD0136DCE70909F8E7DA05000068
:104300002A0400004CFB071037B504000D00836A37
:1043100000219B6B406A9847A36A606A5B6B10211F
:1043200098472900200001AAFDF7AAFD2000019965
:10433000FEF77AFD37BD10B50B004178026A0129FE
:1043400004D11900100001F0BEF910BD816A406A65
:10435000243101F0C8F9F8E7F0B504000F001E00A1
:10436000C56887B06B1C0593AB1CC3602900049221
:104370000122FDF72DFC39002000FDF7AFFFA36AF5
:10438000002294331B68606A691C9847A36A29005D
:10439000DB6A606A9847A36A606AD0331B689847F3
:1043A000E368370001930133E36000230093009B2F
:1043B000049A934216DB2000FDF71AFCA36A606A98
:1043C000D4331B689847A36A0599DB6A606A9847EB
:1043D00020000C99FDF782FFA36A0199DB6A606AED
:1043E000984752E03B680393E36802930133E3602C
:1043F000039B9E68009B01330093002E47D1049BD2
:10440000009A934239D10025A36A606A1B6E9847CF
:104410002E00039B2000D968FDF760FF002D19D006
:10442000A36A10215B6B606A9847A36A3100DB6A5C
:10443000606A9847A36A10215B6B606A98472900FD
:104440002000FEF7F1FC20002900FFF774FF200098
:10445000FDF7CEFBA36A012294331B680199606AC1
:104460009847A36A0299DB6A606A9847A36A0121A8
:10447000DB68606A9847043799E720001D4A39686D
:10448000FDF78CFD2000FDF7B3FB07B0F0BD032561
:10449000032335401E422BD1FF21736832000B40AD
:1044A000762B02D1D568B6682D09A36A606A9B6D28
:1044B000984731002000FDF711FFA36A08219C33C3
:1044C0001B68606A9847A36A00211B6F029A606AA2
:1044D0009847002D97D029002000FEF7A5FCE6683C
:1044E0000222731C31002000E360FDF771FB90E7AE
:1044F0000025DAE769FB0710F0B5C76885B00393BC
:104500007B1C16000D0002223900C3600400FDF779
:104510005FFB002E21D1A36A0321DB68606A984704
:1045200029002000FDF7DAFE0321A36A606ADB6838
:1045300049429847A36A606A10215B6B9847A36A57
:104540003900DB6A606A984720000B99FDF7C6FEC8
:104550002000FDF74DFB05B0F0BD0A9B3200009333
:1045600029002000039BFFF7F7FEE3E77FB5CE6845
:10457000050073680C00DBB2782B09D10022B36808
:104580000092019313002800A168FFF7B5FF7FBDDB
:10459000742B17D1300003AA772108307AF0F8FE87
:1045A00033690200002B07D1F36800932800039BB6
:1045B000A168FFF7D1FEEAE79B680193F3680093D7
:1045C000039BE0E7080003AA77210C307AF0E0FEB5
:1045D00000230200E9E700000F23F7B50B400500B8
:1045E0000C00022B03D10909FFF7A5FEF7BD002936
:1045F00065D00327394262D1FF224B6813402C2B30
:104600003BD18968FDF76AFEE668002E57D031007D
:1046100039403E4253D1FF207268330010408E284B
:104620000AD10F00130A0193019B013BBB4211DC2D
:10463000019B01339B009B595A68D2B2312A12D197
:1046400028009968FDF74AFEAB6A02211B6D686A73
:104650009847CBE73300BA00083328009958FDF794
:104660003DFE0137E0E7322A29D19968AB6A686AD2
:104670005B6D0909303A9847B8E72D2B1FD18C683C
:10468000002C1CD063681A0A0123022A0AD1E268AE
:10469000002A07D03A4205D15368FF221340AC2BC1
:1046A0000DD0012362685E1C013B120A9A429DD91B
:1046B000B300E1582800FFF78FFF3300F2E7210035
:1046C0002800024AFDF76AFC90E7C04687FB071006
:1046D000F0B5437804000D0085B0012B0BD14B6879
:1046E000DBB20093102B08D0036A1B78002B04D197
:1046F000214AFDF753FC05B0F0BD28006D2103AA47
:1047000008307AF045FE00270190019BBB42F2D0B1
:10471000039ABB009958206A0022090913F0D5FCBE
:10472000009A06000378102A10D1002B02D0134AF9
:10473000032B17D1032333707168206A13F0E6FC52
:10474000002801D0032303700137DEE7002B0ED1D0
:10475000013303700100206A13F0E1FC3378084A4A
:10476000012BF1D129002000FDF718FCECE7062B06
:10477000EAD0044AF6E7C0469FFB0710C4FB0710C7
:10478000E3FB071001FC0710F7B50400006A019273
:10479000C28A9C46170002230D001F401A4205D012
:1047A000334A29002000FDF7F9FBF7BD0F26314001
:1047B000022917D1A2782909002A03D0838B01335B
:1047C000838303E01700438B0133438301260029D1
:1047D000EBD0002213F079FC03780090002B2FD04F
:1047E000244ADEE76968019EC9B22F00B14208D1B0
:1047F000AB681909A378002BE0D1438B01334383C5
:10480000E4E7614516D1A378002BC9D10121A1703D
:10481000A9680029C9D004270F263A430E40C28256
:10482000022E03D1F9401F000326D0E78B680F004A
:104830001909F9E7A968134305260909C382C6E7E0
:104840000423009A13705670236A1B8B032BACD180
:10485000019B482BA9D1002FA7D02000F968FDF7B4
:1048600009FD009A03015078184350709DE7C04637
:1048700022FC071031FC071010B549234822FFF72E
:1048800083FF10BD10B54F234E22FFF77DFF10BDF3
:10489000F0B5A1B0059010201400069104F0A2FF1D
:1048A000D0231B061B68BE4A9B009B5800211B6936
:1048B0005822436007000AA878F034FD0AAB1C7048
:1048C000012301215B4219A80F9304F0D5FF0221B7
:1048D000069B0122DB00194319A805F003F8012308
:1048E000002143601CA80CF0F5F9D423AD4A9B00CD
:1048F000D35C059A002112680AA8FDF782FA01909C
:1049000017A800F063FEA84B119C1493002303909A
:1049100013900293002C02D00B9D002D20D0119CEF
:10492000002C02D00B9B002B39D000250299039854
:1049300000F053FE119C0B9B002C00D13AE1002BA0
:1049400000D1E0E0129B0AA8D968FDF71CFB129B7E
:104950000C9A02939B8A06990B980AF0F5FC2CE1BD
:10496000238B012221000AA8042B08D1FDF728FB84
:104970000D9B029A9A4200D20293A468CAE7FEF7FE
:10498000ADFF238D9D42F3D2E26AEB00D118D35CD8
:10499000012B02D1200013F0C2FB0135F1E7042105
:1049A000E28A0A4215D0218D01394A1C11D0022514
:1049B000E06ACA0082185078284225D0002B08D01F
:1049C000596815008C46186842CD42C36346106092
:1049D000536000252584238D04939D421ADB002318
:1049E0000120049A9A4244D16568002D0AD0002221
:1049F0002B8D0893130008998A4249DB0022012578
:104A0000934275D1A4688BE7002BCDD10128CBD17F
:104A10001300C9E7E36AEE009E192378012B04D145
:104A200073680F2B10D10135D5E73278012B0BD9E4
:104A3000012A09D103233370238B032B13D01022B7
:104A4000E38A1343E38202E03378032BF4D0337814
:104A5000042B03D0012273781342E4D0238C5A1C18
:104A600022847380DFE7706808F0EEFA0128EEDC3C
:104A7000E5E7E16ADA008D188A5C052A06D16A78D2
:104A8000024203D1228C6A80013222840133A8E7DA
:104A9000E96AD0000E18095C07960539012917D874
:104AA000002112E0E66AC800B4468444305C06285F
:104AB0000AD10798406809906046099E406886427E
:104AC00002D1604643800133013104988842E9D124
:104AD000013290E7E06AE66AD1004018715C06296D
:104AE00002D14178294202D04188C918418001325F
:104AF00004999142EED1628B9BB29A186283228C08
:104B00009B1823847EE7238B042B1BD1159B0493D6
:104B1000002B03D1029801F02FFA15900023139374
:104B2000224B032221000AA81693FDF749FA0B9B9A
:104B30000493002B04D1042221000AA8FDF740FAB7
:104B4000A468F8E6023B012B24D8002D06D1029B75
:104B50000DAA0BA917A803F0D5FE0500144B139559
:104B60001493022221000AA8FEF7B8FE0B9B0493BF
:104B7000002BE5D1032221000AA8FEF7AFFE0B9B14
:104B8000002BDDD1042221000AA8FEF7A7FE002891
:104B9000F8D0D5E7039B1393034B1493E1E7C0468A
:104BA0009C7A00203C7F002048FD0710E0FF0710A2
:104BB00094020810002B00D0C4E6019B0B9E1B69D9
:104BC0000293002E19D0039800F00FFD002D40D164
:104BD0001598002801D001F0E4F905987AF0C0FB9F
:104BE00001988368019313F057FA019B002BF7D1CA
:104BF0000B98002831D008F083FA199BDC08640078
:104C00001E9B0334A008C0188000049304F0EAFD42
:104C100003239C430419FC601B991A9CB860A642AC
:104C20000AD100231E998B42CDD01F989A0080583C
:104C3000FC680133A050F6E70A68002A06D0042A6F
:104C400004D04B68D2085B105B001A520136083161
:104C5000E5E7280003F077FEBAE73900019A0298E9
:104C600000F096FD21B0F0BD8079431E9841C0B29E
:104C700070474379012B09D08368C91803698160A3
:104C80005A8C914200DD598400238371704770B5BE
:104C900004000D000021FFF7ECFF6379012B03D026
:104CA000E26A236AAD00EA5070BD042110B54942A2
:104CB000FFF7DFFF10BD10B50421FFF7DAFF10BDCD
:104CC000032110B54942FFF7D4FF10BD0300406A2D
:104CD0005A794118032A02D81800596270475A6B52
:104CE0001018FAE70300C06A5A794118032A02D85B
:104CF0001800D96270479A6A80185A6B1018F8E742
:104D000010B50C000121FFF7EDFF047010BD70B568
:104D100004001500FFF7ADFF01212000FFF7E2FFBF
:104D2000057070BD10B553220121FFF7F0FF10BDD3
:104D300010B554220121FFF7EAFF10BD10B557222C
:104D40000121FFF7E4FF10BD10B558220221FFF743
:104D5000DEFF10BD012110B559224942FFF7D7FFF0
:104D600010BD10B55A220021FFF7D1FF10BD10B5BC
:104D70005B220021FFF7CBFF10BD012110B55D22A2
:104D80004942FFF7C4FF10BD5E2210B5002901D0D3
:104D900003215F22FFF7BBFF10BD0A0010B5303AB8
:104DA0000021D2B2FFF7B3FF10BD022110B562227D
:104DB0004942FFF7ACFF10BD012110B56322494203
:104DC0000400FFF7A4FF0123A37110BD0A0010B572
:104DD0006432D2B24942FFF79AFF10BD0A0010B503
:104DE00004006732D2B24942FFF791FF01232269E2
:104DF000D18A0B43D38210BD70B51D000400FFF7AC
:104E000086FF2A0020000249FBF782FE70BDC046E3
:104E1000E54C001070B50D0004001900C0681600C4
:104E200000F020FC3200030029002000FFF7E4FF1F
:104E300070BD10B50B0010220121FFF7EBFF10BD74
:104E400010B511320B000121D2B2FFF7E3FF10BD04
:104E500010B501240B005100611A541EA2411432F6
:104E6000FFF7D8FF10BD0B00012110B51632D2B2EA
:104E70004942FFF7CFFF10BD10B519320B000021DA
:104E8000D2B2FFF7C7FF10BDF8B5C4681D00267881
:104E90006388042E02D167689E00F5515D1C658011
:104EA000FFF7AAFFF8BD110010B52833DAB20B00E6
:104EB0000021FFF7A1FF10BD10B501240B00210058
:104EC000022A00D0E11A2A32D2B2FFF795FF10BDB4
:104ED00010B5002413002200032905D0013422005C
:104EE000042901D000240132E3189B001343E1435D
:104EF0002F22FFF781FF10BD10B50B0030220139C2
:104F0000FFF77AFF10BD10B513020B438918312249
:104F1000FFF772FF10BD0B0010B5012A07D0022A5F
:104F20000BD1012167324942FFF7F1FE10BD11009C
:104F30001B32D2B2FFF76EFFF8E701214942F7E7D3
:104F4000F8B506001C001700FFF793FE7379022BDB
:104F500022D9A3000224F26A6442A41A326A9B583E
:104F6000E418442F13D823000125403302DB3F2CE3
:104F700000DC0025641B3000A91CFFF7B3FE07709E
:104F8000002D0CD1442F00D840344470F8BD7F254B
:104F9000A542AD416D42EDE700240125EBE7442F2A
:104FA00002D88023DB01E4187379042B06D1802317
:104FB0001B029C4202D301233836337080235B42AC
:104FC0002343E41143708470E0E710B50B004222E4
:104FD0000021FFF7B5FF10BD0B0010B5544254413E
:104FE00047326100D2B2FFF7ABFF10BD10B50B0026
:104FF0004B220121FFF7A4FF10BD10B50B004A2280
:105000000021FFF79DFF10BDD323F7B5224A9B0077
:10501000D35805000191022B29D88769B94226D9B6
:10502000C36A4269CF1B9C1A062F01D90F2C1FD9C6
:1050300000941F2C01D91F230093009B0026A3423C
:1050400003D33E00032F00D9032601212800FFF7D8
:105050003DFE009A730113430370009BBF1BE41ACB
:1050600023003B43E0D1EB6A6B61019BAB61F7BD71
:1050700080233E001B019F4200D3084E02212800DE
:10508000FFF724FE7022330913402343F03A134301
:10509000037046700094E0E73C7F0020FF070000AB
:1050A00010B50400002905D1552201392000FFF771
:1050B0002EFE10BD022904D1FFF734FE2000FFF7B9
:1050C00056FE032156224942F0E7130010B5432251
:1050D000002900D1442201214942FFF731FF10BDD0
:1050E000130010B54522002900D146220121494272
:1050F000FFF726FF10BD0000F8B5164F05000C00A5
:1051000016000F40002A17D10B040ED55921FFF7C6
:10511000F7FD59212800FFF7F3FD59212800FFF77B
:10512000EFFD59212800FFF7EBFD3B004222002153
:105130002800FFF705FFF8BD3B0040220021FFF7E4
:10514000FFFE7F23210A994331432800C9B2FFF7AC
:10515000D7FDF0E7FF7FFFFF70B50400322913D0C1
:105160000025332901D101352C392939CAB2012151
:1051700020004942FFF7CBFD002D04D0D3220021AF
:105180002000FFF7C4FD70BD01250621EDE770B5D5
:105190000D000400111E05D12B0013222000FFF783
:1051A00039FE70BD022A04D1FFF7BCFD2000FFF7D5
:1051B000D8FD02212B0018224942EFE7110010B55B
:1051C000002B07D10F2A05D8503A0121D2B2FFF7A0
:1051D0009EFD10BD2433DAB20B000121FFF70CFE57
:1051E000F7E7110010B5002B08D10F2A06D80121CE
:1051F000403AD2B24942FFF78AFD10BD2633DAB2F7
:105200000B0001214942FFF7F7FDF6E770B5049D59
:10521000D2B26C002D02E4182B43059D002D02D064
:105220000132D2B20134091BFFF7E6FD70BD07B5AC
:10523000019300920B0034220021FFF7E7FF07BD26
:1052400013B50124019300920B0036226142FFF74F
:10525000DDFF13BD10B50400C06800F01AFA232268
:10526000030001212000FFF7C7FD10BD0B00103324
:10527000F7B506000D003F2B06D80A00803A012141
:10528000D2B2FFF744FDF7BD01212222FFF73FFD17
:105290006B465C1D21007F202F0022000740EBB2EF
:1052A000013CED1127706F1C012FF5D840273B40C2
:1052B000013514D1002B02D1013C2070941E300026
:1052C000091BFFF70FFD80260200230001AD764287
:1052D000AB420AD16A4612791B1BC254D3E7002B9A
:1052E000EDD00023013C2370E8E719780133314306
:1052F00011700132ECE770B5040018000B690499D5
:10530000D5B208430AD10121891A20222000FFF7D3
:10531000BBFD29002000FFF7F3FC70BDD143212223
:10532000F4E710B51C000B69224304D1012132328D
:10533000FFF7AAFD10BD012133224942F8E7000022
:1053400010B504000E290AD10849C06800F0A1F97F
:105350002322030001212000FFF74EFD10BD413143
:10536000CAB20121FFF7D3FCF8E7C0465835081050
:1053700070B504000D001021FFF7E2FF29002000A6
:10538000FFF785FC5C2220000221FFF7C0FC04210E
:1053900020004942FFF76DFC70BD000070B54379F5
:1053A0000400012B01D1012033E00025C26B436AC8
:1053B00005649B1AC3632069038D9D420BD36379F7
:1053C000032B19D1606AE36AA0622363C01804F05A
:1053D00028FA6063E7E7C26AEB00D118D35C052BBB
:1053E00008D18E7820000121FFF770FC0670236C35
:1053F000013323640135DEE7042BD4D1626AA16A4C
:10540000E36A8A4202D1216B994203D00020A26252
:10541000236370BD230038331B78002B03D006496B
:10542000064811F003FDE268C38A5268616B0069A7
:1054300000F087F9B7E7C04634FD07106025081073
:10544000F0B50023417187B0010001920261012291
:105450008371383183604361C362436282610B7040
:10546000019B06001F8C5B8CFF18002F00D11700DA
:10547000019B013F998CDA8A0F231A40019B03920A
:105480005D8B9B8B78220493019B8C00DB8B0593B7
:1054900004231C40013B2B401C43FB0013401C43D6
:1054A0004B083F090293AD08029B039A3B43134309
:1054B000049A2B431343059A01213000134337D13B
:1054C000FFF704FC04707379022B17D9F56B376C66
:1054D0007E236C001C407D3B3B407F081C433B000F
:1054E000AD092B43029301D080231C4301213000DE
:1054F000FFF7ECFB029B0470002BE9D1736AF068A4
:10550000F363019B0024998A00F0ACF82E4D020051
:1055100029003000FBF7FCFA0127019B019A5B8B05
:10552000928B9B18A3424DDD019B0022198D45E013
:10553000FFF7CCFB80235B421C43039B04709C0160
:10554000402330221C403B0113401C430123059A99
:10555000134008221C43049BDB0013401C43043A05
:10556000AB0013401C43029B023A5B0013401C43F8
:10557000029BD7405B080293039B6D085B08039373
:10558000049B5B080493059B5B0805938CE70198DB
:10559000D300C06A0290C318587838420DD058889A
:1055A000A0420AD15968F06800F05CF829000200B6
:1055B0003000FBF7ADFA0134AFE701329142E6DC8F
:1055C0000521F0E707B0F0BDCD4C001010B5040088
:1055D000442004F026F9C46010BD10B50400C16178
:1055E000880004F0FFF8206210BD10B50400006AC6
:1055F00004F02CF9200004F029F910BDF8B50400DE
:105600000D00884201D10120F8BD144B984201D110
:105610000020F9E79942FBD007F09EFD0600280024
:1056200007F09AFD8642F3D10D4B9E4211D163687B
:105630006A689342ECD1082600276368BB42E2D92E
:10564000A959A059FFF7DAFF04360028E0D0013746
:10565000F3E72900200008F02FF8D5E71417081009
:10566000683F0810CB00022110B519430400012245
:10567000083004F037F94368002B06D10122A368F3
:10568000DB08013B5B00134343604068401080B27D
:1056900010BD70B505000E000024EB69A34208D8C8
:1056A0002800310014300BF057F9EC69013C200060
:1056B00070BD2A6AA30031009858FFF79FFF0028A9
:1056C000F5D10134E9E710B50122040012F0FDFC28
:1056D0000378012B04D12378012B02D90423037012
:1056E00010BD0223FBE770B505000E001000190085
:1056F0001C0012F0DAFC03785A1E012A05D8002299
:10570000736821002800984770BD032B02D1012245
:105710007368F6E736684288042B04D10023210021
:105720002800B047F0E70123F9E710B5102004F096
:1057300078F80722037893431A0001231343037078
:1057400010BD10B57F241C400223E40023430488CD
:105750004160A40AA40223430380826010BD42601A
:10576000FE22009B92008360019BDB001340072216
:1057700011401943029B02689B020B43DB02520D4E
:105780005205DB0A13430360039BC36070470000AC
:1057900070B5040023780D005B07100061685B0F93
:1057A000042B0BD8022B0BD9A3682A000AF044FA69
:1057B00023881B0713D50A4B036010E0052B08D084
:1057C000A3682A000AF008FA23881B0707D5054BAF
:1057D000F2E72368E268D802400D0AF035FA70BD9E
:1057E000DC2B0810A02B081070B51D0080231400BE
:1057F0005B001A401C4200D02A00FFF7C9FF0223B9
:10580000E2091A409A40E1B2AA1808F01FFD70BDE3
:10581000F0B585B004000D00100003A91E0079F05A
:105820007FFD002809D12A000B490C4809F052FDE0
:10583000636A1860002005B0F0BD039807F036FDDC
:105840000300B343F7D003002A000549009603483C
:1058500009F040FDECE7C04620FE071014260810B2
:1058600038FE071070B5038CC46A032B03D10023E4
:10587000856A9D4205D18B00E250FAF74BFE01206C
:1058800070BD9E00A659964201D00133F1E7002079
:10589000F6E710B5FAF794FE10BD8BB270B50500AF
:1058A0000C0003844262032B05D1836A0021C06A85
:1058B0009A0077F037FD211F4B42594128000131F2
:1058C000FAF705FE28000021FAF74EFE70BD000031
:1058D0000F2370B513400400022B09D00A001048B2
:1058E000104909F0F7FC0025636A1860280070BDB4
:1058F0000025836A12099D420AD1238C0025042BBE
:10590000F4D10949064809F0E5FC636A1860EDE73F
:10591000E06AA90009588A42E8D00135EBE7C046A1
:105920001426081063FE071078FE0710F8B51E0055
:105930000F2304000D001B481340022B02D1100955
:1059400010F01FFE0378184A1F0000235178B94257
:105950001DD141788C4691788C4518D181788C4640
:10596000D178614513D100290ED10F4A9B00D05C3C
:10597000B04208D933002A000C490D4809F0AAFCAE
:10598000636A18600020F8BDC1780029EDD00133AA
:105990000432152BDAD12A000649054809F09AFC91
:1059A000EEE7C046FB440910480008108FFE0710C0
:1059B00014260810A8FE0710F0B505000E0085B0EB
:1059C000002A45D00320024242D1FF2153680B40F8
:1059D0002F2B3DD19268203B14001C40022C08D193
:1059E00031002800FFF7A2FF013C8440200005B0F1
:1059F000F0BD002A2CD0140004400194024227D1AB
:105A0000506808409F2823D1D76878680140A129B1
:105A10001ED1310092682800FFF788FF01248440DE
:105A20003800A221083003AA79F0B2FC019F00904F
:105A3000009B9F42DADA0399BA000F2352582800DC
:105A40003100FFF773FF0123834001371C43EFE769
:105A500032000449044809F03DFC6B6A00241860D8
:105A6000C4E7C046C0FE07101426081010B5040095
:105A7000024809F0A5FB206010BDC046142608109E
:105A8000F7B50C000600002512490192042C09D834
:105A9000AC420BD0019AAB00D0580F230340022B2D
:105AA00006D00D49706AFFF7E1FF00242000FEBD1B
:105AB000000910F066FD070079F0C2FC0228F0D161
:105AC0003B78722BEDD12B007A7830339A42E8D1B3
:105AD0000135DDE7DBFE07100EFF0710F0B50E0005
